:100000000C942A000C9418110C9447000C9447008F
:100010000C9447000C9447000C9447000C94470044
:100020000C9447000C9447000C9447000C94470034
:100030000C9447000C9447000C9447000C94470024
:100040000C9447000C9447000C9447000C94470014
:100050000C94470011241FBECFE5D8E0DEBFCDBF12
:1000600010E0A0E6B0E0EAE5FBE302C005900D92E7
:10007000A438B107D9F710E0A4E8B0E001C01D92A0
:10008000A838B107E1F70E94971A0C94AB1D0C94A5
:100090000000EF92FF920F931F937B018C0120E0F1
:1000A00030E040E05FE40E94F50388238CF0C80153
:1000B000B70120E030E040E05FE40E94C1010E940F
:1000C00055049B01AC01205030404040504806C0D0
:1000D000C801B7010E9455049B01AC01B901CA01D6
:1000E0001F910F91FF90EF900895A0E0B0E0EBE733
:1000F000F0E00C94741DDC012B01FA019C9192300C
:1001000008F439C1EB018881823008F433C194309E
:1001100069F4843009F02FC111969C91119789815F
:10012000981709F428C1A0E6B0E025C1843009F48D
:1001300021C18230A9F4923009F01DC19A01AD01AC
:1001400088E0EA010990AE01E90109929E0181501F
:10015000C1F7E201898111969C918923818308C1AD
:10016000923009F407C112962D903C901397EB0141
:100170008A819B811496AD90BD90CD90DC901797AD
:10018000EC80FD800E811F819101281B390BB90184
:1001900037FF04C066277727621B730B6032710537
:1001A0000CF061C0121613066CF537014801062EDB
:1001B00004C096948794779467940A94D2F721E0C8
:1001C00030E040E050E004C0220F331F441F551FB1
:1001D0006A95D2F721503040404050402E213F21B7
:1001E00040235123211531054105510521F021E01E
:1001F00030E040E050E079018A01E628F72808293C
:1002000019293CC0232BD1F1260E371E350146019A
:10021000062E04C096948794779467940A94D2F734
:1002200021E030E040E050E004C0220F331F441FC3
:10023000551F6A95D2F721503040404050402A2146
:100240003B214C215D21211531054105510521F04E
:1002500021E030E040E050E059016A01A628B728CB
:10026000C828D9280BC0821593052CF01C01AA249C
:10027000BB24650103C0EE24FF24870111969C91E5
:10028000D20111968C91981709F445C0992339F041
:10029000A80197012A193B094C095D0906C0A6016E
:1002A00095012E193F09400B510B57FD08C01182D3
:1002B0003382228224833583468357831DC081E0A5
:1002C00081833382228288279927DC01821B930B4A
:1002D000A40BB50B84839583A683B7830DC0220F2F
:1002E000331F441F551F24833583468357838281E0
:1002F000938101979383828324813581468157813D
:10030000DA01C9010197A109B1098F5F9F4FAF4F72
:10031000BF4328F30BC0918333822282EA0CFB1C7B
:100320000C1D1D1DE482F5820683178383E0808304
:10033000248135814681578157FF1AC0C901AA27F8
:1003400097FDA095BA2F81709070A070B0705695EF
:10035000479537952795822B932BA42BB52B848318
:100360009583A683B7838281938101969383828349
:10037000DF0101C0D201CD01CDB7DEB7E2E10C94BF
:10038000901DA0E2B0E0E7ECF1E00C94801D6983E1
:100390007A838B839C832D833E834F835887E9E048
:1003A000EE2EF12CEC0EFD1ECE010196B7010E943F
:1003B0007E058E010F5E1F4FCE010596B8010E948B
:1003C0007E058A8991E089278A8BC701B801AE0131
:1003D000475E5F4F0E9475000E94A904A096E6E068
:1003E0000C949C1DA0E2B0E0E8EFF1E00C94801DBD
:1003F00069837A838B839C832D833E834F835887C5
:10040000F9E0EF2EF12CEC0EFD1ECE010196B701A6
:100410000E947E058E010F5E1F4FCE010596B8012A
:100420000E947E05C701B801AE01475E5F4F0E9482
:1004300075000E94A904A096E6E00C949C1DA0E221
:10044000B0E0E5E2F2E00C94741D69837A838B835B
:100450009C832D833E834F835887CE010196BE0136
:10046000675F7F4F0E947E05CE010596BE016F5EDD
:100470007F4F0E947E059985923088F0898982306D
:10048000C8F0943019F4823051F404C0843029F457
:10049000923081F480E690E0C6C0923049F420E0CA
:1004A0009A858A89981321E02A87CE010996BBC0D4
:1004B000823049F420E09A858A89981321E02A8BBA
:1004C000CE014196B0C02D843E844F8458886D88FB
:1004D0007E888F88988CEE24FF248701AA24BB2471
:1004E000650140E050E060E070E0E0E0F0E0C10174
:1004F00081709070892BE9F0E60CF71C081D191D1E
:100500009A01AB012A0D3B1D4C1D5D1D80E090E062
:10051000A0E0B0E0E614F7040805190520F481E036
:1005200090E0A0E0B0E0BA01A901480F591F6A1F8E
:100530007B1FAA0CBB1CCC1CDD1C97FE08C081E0F5
:1005400090E0A0E0B0E0A82AB92ACA2ADB2A3196B6
:10055000E032F10549F0660C771C881C991C569412
:10056000479437942794C3CFFA85EA892B893C892D
:100570008B859C85280F391F2E5F3F4F17C0CA01FE
:1005800081709070892B61F016950795F794E79428
:1005900080E090E0A0E0B0E8E82AF92A0A2B1B2BC3
:1005A00076956795579547952F5F3F4F77FDE7CF36
:1005B0000CC0440F551F661F771F17FD4160EE0CDE
:1005C000FF1C001F111F21503040403090E05907A0
:1005D00090E0690790E4790760F32B8F3C8FDB0193
:1005E000CA018F779070A070B07080349105A1051A
:1005F000B10561F447FD0AC0E114F10401051105DC
:1006000029F0405C5F4F6F4F7F4F40781A8EFE1786
:1006100011F081E08A8F4D8F5E8F6F8F78A383E01A
:10062000898FCE0149960E94A904A096E2E10C941C
:10063000901DA8E1B0E0EFE1F3E00C947C1D69832C
:100640007A838B839C832D833E834F835887B9E0C5
:10065000EB2EF12CEC0EFD1ECE010196B7010E948F
:100660007E058E010F5E1F4FCE010596B8010E94D8
:100670007E052985223008F47EC03989323010F495
:10068000B8017CC08A859A8989278A87243011F02D
:10069000223031F4231709F06EC060E670E06EC0BE
:1006A000343039F41D861E861F86188A1C861B86E8
:1006B00004C0323021F484E08987B7015FC02B8504
:1006C0003C858B899C89281B390B3C872B87ED84C3
:1006D000FE840F851889AD88BE88CF88D88CEA142F
:1006E000FB040C051D0540F4EE0CFF1C001F111F40
:1006F000215030403C872B8720E030E040E050E044
:1007000080E090E0A0E0B0E460E070E0EA14FB0478
:100710000C051D0540F0282B392B4A2B5B2BEA18C2
:10072000FB080C091D09B695A79597958795EE0CC2
:10073000FF1C001F111F6F5F7F4F6F31710531F775
:10074000DA01C9018F779070A070B0708034910584
:10075000A105B10561F427FD0AC0E114F10401050A
:10076000110529F0205C3F4F4F4F5F4F20782D87B8
:100770003E874F87588BBE01675F7F4FCB010E943A
:10078000A9046896EAE00C94981DA8E1B0E0EBECAF
:10079000F3E00C94801D69837A838B839C832D8383
:1007A0003E834F83588789E0E82EF12CEC0EFD1E26
:1007B000CE010196B7010E947E058E010F5E1F4F8C
:1007C000CE010596B8010E947E058985823040F0F1
:1007D0008989823028F0C701B8010E94F60501C05E
:1007E0008FEF6896E6E00C949C1DA8E1B0E0EBEF7B
:1007F000F3E00C94801D69837A838B839C832D8323
:100800003E834F83588789E0E82EF12CEC0EFD1EC5
:10081000CE010196B7010E947E058E010F5E1F4F2B
:10082000CE010596B8010E947E058985823040F090
:100830008989823028F0C701B8010E94F60501C0FD
:100840008FEF6896E6E00C949C1DA8E1B0E0EBE227
:10085000F4E00C94801D69837A838B839C832D83C1
:100860003E834F83588789E0E82EF12CEC0EFD1E65
:10087000CE010196B7010E947E058E010F5E1F4FCB
:10088000CE010596B8010E947E058985823040F030
:100890008989823028F0C701B8010E94F60501C09D
:1008A00081E06896E6E00C949C1DACE0B0E0EBE5DE
:1008B000F4E00C94841D69837A838B839C83CE013E
:1008C0000196BE016B5F7F4F0E947E058D81823055
:1008D00061F1823050F1843021F48E81882351F10E
:1008E0002EC02F81388537FD20C06E812F31310514
:1008F0001CF06623F9F023C08EE190E0821B930B7D
:1009000029853A854B855C8504C056954795379572
:1009100027958A95D2F76623B1F05095409530958A
:1009200021953F4F4F4F5F4F0EC020E030E040E039
:1009300050E009C02FEF3FEF4FEF5FE704C020E02A
:1009400030E040E050E8B901CA012C96E2E00C9496
:10095000A01DDF92EF92FF920F931F93FC01E480A2
:10096000F58006811781D1808081823048F480E053
:1009700090E0A0E1B0E0E82AF92A0A2B1B2BA5C0E1
:10098000843009F49FC0823021F4EE24FF248701D3
:1009900005C0E114F1040105110519F4E0E0F0E0EF
:1009A00096C0628173819FEF623879070CF05BC05B
:1009B00022E83FEF261B370B2A3131052CF020E0CF
:1009C00030E040E050E02AC0B801A701022E04C088
:1009D00076956795579547950A94D2F781E090E010
:1009E000A0E0B0E004C0880F991FAA1FBB1F2A9582
:1009F000D2F70197A109B1098E219F21A023B1232C
:100A00000097A105B10521F081E090E0A0E0B0E001
:100A10009A01AB01282B392B4A2B5B2BDA01C90138
:100A20008F779070A070B07080349105A105B105EA
:100A300039F427FF09C0205C3F4F4F4F5F4F04C080
:100A4000215C3F4F4F4F5F4FE0E0F0E02030A0E0EF
:100A50003A07A0E04A07A0E45A0710F0E1E0F0E00E
:100A600079018A0127C06038710564F5FB01E158FE
:100A7000FF4FD801C7018F779070A070B07080349D
:100A80009105A105B10539F4E7FE0DC080E490E0C1
:100A9000A0E0B0E004C08FE390E0A0E0B0E0E80E9A
:100AA000F91E0A1F1B1F17FF05C016950795F7941F
:100AB000E794319687E016950795F794E7948A9521
:100AC000D1F705C0EE24FF248701EFEFF0E06E2F91
:100AD000679566276795902F9F77D794DD24D794E5
:100AE0008E2F8695492F462B582F5D29B701CA01B5
:100AF0001F910F91FF90EF90DF900895FC01DB01B3
:100B0000408151812281622F6F7770E0221F22275E
:100B1000221F9381892F880F822B282F30E0991F65
:100B20009927991F11969C93119721153105A9F5C5
:100B3000411551056105710511F482E037C082E865
:100B40009FEF13969C938E9312979A01AB0167E0E7
:100B5000220F331F441F551F6A95D1F783E08C93F2
:100B60000DC0220F331F441F551F12968D919C916B
:100B70001397019713969C938E931297203080E0E1
:100B8000380780E0480780E4580758F314962D93FF
:100B90003D934D935C93179708952F3F310579F45A
:100BA000411551056105710519F484E08C93089590
:100BB00064FF03C081E08C9312C01C9210C02F57B9
:100BC000304013963C932E93129783E08C9387E0EA
:100BD000440F551F661F771F8A95D1F770641496CE
:100BE0004D935D936D937C93179708951F93DC014C
:100BF000FB019C91923008F447C08081823008F458
:100C000043C0943051F411961C91843099F5818140
:100C1000682F70E0611B71093FC0843021F0923071
:100C200031F48230B9F18181882389F12DC0119688
:100C30001C9111978230F1F081811817D9F4129626
:100C40002D913C911397828193818217930794F0A1
:100C500028173907BCF014968D919D910D90BC9189
:100C6000A02D2481358146815781281739074A07ED
:100C70005B0718F4112341F00AC082179307A407F9
:100C8000B50740F4112319F061E070E005C06FEF83
:100C90007FEF02C060E070E0CB011F910895DF9309
:100CA000CF93CDB7DEB783E00E94BA0682E00E9400
:100CB000210780E00E949E068FE70E94AC060E94FA
:100CC00074060E949006CF91DF910895DF93CF9331
:100CD000CDB7DEB7A9E5B0E0E9E5F0E0808181605D
:100CE0008C93CF91DF910895DF93CF93CDB7DEB78B
:100CF000A9E5B0E0E9E5F0E080818E7F8C93CF91AB
:100D0000DF910895DF93CF93CDB7DEB7A9E5B0E0CB
:100D1000E9E5F0E0808182608C93CF91DF910895C6
:100D2000DF93CF93CDB7DEB7A9E5B0E0E9E5F0E01A
:100D300080818D7F8C93CF91DF910895DF93CF9346
:100D40000F92CDB7DEB78983E2E5F0E08981808339
:100D50000F90CF91DF910895DF93CF930F92CDB78E
:100D6000DEB78983ECE5F0E0898180830F90CF9135
:100D7000DF910895DF93CF9300D00F92CDB7DEB708
:100D800089838981282F30E03B832A838A819B8154
:100D90008130910521F12A813B81223031052CF4EB
:100DA0008A819B81009761F046C02A813B81223075
:100DB000310521F18A819B818330910571F13BC01E
:100DC000A3E5B0E0E3E5F0E08081877F8C93A3E5C5
:100DD000B0E0E3E5F0E080818F7B8C932CC0A3E54D
:100DE000B0E0E3E5F0E08081877F8C93A3E5B0E09D
:100DF000E3E5F0E0808180648C931DC0A3E5B0E062
:100E0000E3E5F0E0808188608C93A3E5B0E0E3E562
:100E1000F0E080818F7B8C930EC0A3E5B0E0E3E52A
:100E2000F0E0808188608C93A3E5B0E0E3E5F0E03A
:100E3000808180648C930F900F900F90CF91DF9101
:100E40000895DF93CF9300D00F92CDB7DEB789839B
:100E50008981282F30E03B832A838A819B818130DE
:100E6000910521F12A813B81223031052CF48A81C0
:100E70009B81009761F046C02A813B812230310579
:100E800021F18A819B818330910571F13BC0A3E5FB
:100E9000B0E0E3E5F0E080818F7E8C93A3E5B0E0E5
:100EA000E3E5F0E080818F7D8C932CC0A3E5B0E07A
:100EB000E3E5F0E0808180618C93A3E5B0E0E3E5B9
:100EC000F0E080818F7D8C931DC0A3E5B0E0E3E569
:100ED000F0E080818F7E8C93A3E5B0E0E3E5F0E065
:100EE000808180628C930EC0A3E5B0E0E3E5F0E082
:100EF000808180618C93A3E5B0E0E3E5F0E0808140
:100F000080628C930F900F900F90CF91DF91089596
:100F1000DF93CF93CDB7DEB782E00E94AE07CF91CB
:100F2000DF910895DF93CF93CDB7DEB7A3E5B0E0AF
:100F3000E3E5F0E080818E7F8C93A3E5B0E0E3E50C
:100F4000F0E080818D7F8C93A3E5B0E0E3E5F0E0F5
:100F500080818B7F8C93CF91DF910895DF93CF9326
:100F600000D00F92CDB7DEB789838981282F30E07A
:100F70003B832A838A819B818430910509F46BC06D
:100F80002A813B81253031058CF48A819B81823016
:100F90009105A9F12A813B81233031050CF045C030
:100FA0008A819B8181309105A1F0ACC02A813B816F
:100FB0002630310509F47BC08A819B8186309105FA
:100FC0000CF45FC02A813B812730310509F485C0CC
:100FD00099C0A3E5B0E0E3E5F0E0808181608C9307
:100FE000A3E5B0E0E3E5F0E080818D7F8C93A3E59D
:100FF000B0E0E3E5F0E080818B7F8C9383C0A3E5D4
:10100000B0E0E3E5F0E080818E7F8C93A3E5B0E073
:10101000E3E5F0E0808182608C93A3E5B0E0E3E556
:10102000F0E080818B7F8C936DC0A3E5B0E0E3E5B9
:10103000F0E0808181608C93A3E5B0E0E3E5F0E02F
:10104000808182608C93A3E5B0E0E3E5F0E08081ED
:101050008B7F8C9357C0A3E5B0E0E3E5F0E080819F
:101060008E7F8C93A3E5B0E0E3E5F0E080818D7F97
:101070008C93A3E5B0E0E3E5F0E0808184608C939D
:1010800041C0A3E5B0E0E3E5F0E0808181608C93AE
:10109000A3E5B0E0E3E5F0E080818D7F8C93A3E5EC
:1010A000B0E0E3E5F0E0808184608C932BC0A3E5A1
:1010B000B0E0E3E5F0E080818E7F8C93A3E5B0E0C3
:1010C000E3E5F0E0808182608C93A3E5B0E0E3E5A6
:1010D000F0E0808184608C9315C0A3E5B0E0E3E587
:1010E000F0E0808181608C93A3E5B0E0E3E5F0E07F
:1010F000808182608C93A3E5B0E0E3E5F0E080813D
:1011000084608C930F900F900F90CF91DF91089592
:10111000DF93CF93CDB7DEB784E00E94D40882E09E
:101120000E94F70A80E00E945E0B80E090E00E943F
:10113000C50B80EC9DEB0E94D70B80E090E00E94F5
:10114000E90B8FE19EE40E94FB0B0E941B0C0E94A6
:10115000290C0E94530CCF91DF910895DF93CF9318
:10116000CDB7DEB782E00E94610CCF91DF91089588
:10117000DF93CF93CDB7DEB7AEE4B0E0EEE4F0E0BE
:1011800080818E7F8C93AEE4B0E0EEE4F0E080816D
:101190008D7F8C93AEE4B0E0EEE4F0E080818B7F55
:1011A0008C93CF91DF910895DF93CF9300D00F926E
:1011B000CDB7DEB789838981282F30E03B832A832E
:1011C0008A819B818730910509F424C12A813B8162
:1011D000283031054CF58A819B818330910509F4D3
:1011E000A5C02A813B81243031058CF48A819B8102
:1011F0008130910509F460C02A813B81223031059C
:101200000CF077C08A819B810097C9F1EAC12A81DD
:101210003B812530310509F4C3C08A819B8186302A
:1012200091050CF0DAC09FC02A813B812B3031053B
:1012300009F464C18A819B818C3091056CF42A8108
:101240003B812930310509F41FC18A819B818A3095
:1012500091050CF036C1FBC02A813B812E3031054F
:1012600009F486C18A819B818F30910509F49DC163
:101270002A813B812C30310509F45DC1B2C1AFE454
:10128000B0E0EFE4F0E080818E7F8C93AFE4B0E0DB
:10129000EFE4F0E080818D7F8C93AEE4B0E0EEE48B
:1012A000F0E08081877F8C93AEE4B0E0EEE4F0E084
:1012B00080818F7E8C9395C1AFE4B0E0EFE4F0E0E5
:1012C00080818D7F8C93AEE4B0E0EEE4F0E080812D
:1012D000877F8C93AEE4B0E0EEE4F0E080818F7E17
:1012E0008C93AFE4B0E0EFE4F0E0808181608C9318
:1012F00078C1AFE4B0E0EFE4F0E080818E7F8C93C2
:10130000AEE4B0E0EEE4F0E08081877F8C93AEE461
:10131000B0E0EEE4F0E080818F7E8C93AFE4B0E04B
:10132000EFE4F0E0808182608C935BC1AFE4B0E0D9
:10133000EFE4F0E0808181608C93AFE4B0E0EFE413
:10134000F0E0808182608C93AEE4B0E0EEE4F0E007
:101350008081877F8C93AEE4B0E0EEE4F0E08081A2
:101360008F7E8C933EC1AFE4B0E0EFE4F0E080818B
:101370008E7F8C93AFE4B0E0EFE4F0E080818D7F6E
:101380008C93AEE4B0E0EEE4F0E0808188608C9372
:10139000AEE4B0E0EEE4F0E080818F7E8C9321C17A
:1013A000AFE4B0E0EFE4F0E0808181608C93AFE4E3
:1013B000B0E0EFE4F0E080818D7F8C93AEE4B0E0AC
:1013C000EEE4F0E0808188608C93AEE4B0E0EEE47F
:1013D000F0E080818F7E8C9304C1AFE4B0E0EFE455
:1013E000F0E080818E7F8C93AFE4B0E0EFE4F0E03A
:1013F000808182608C93AEE4B0E0EEE4F0E0808126
:1014000088608C93AEE4B0E0EEE4F0E080818F7E03
:101410008C93E7C0AFE4B0E0EFE4F0E0808181605E
:101420008C93AFE4B0E0EFE4F0E0808182608C93D5
:10143000AEE4B0E0EEE4F0E0808188608C93AEE44E
:10144000B0E0EEE4F0E080818F7E8C93CAC0AFE420
:10145000B0E0EFE4F0E080818E7F8C93AFE4B0E009
:10146000EFE4F0E080818D7F8C93AEE4B0E0EEE4B9
:10147000F0E08081877F8C93AEE4B0E0EEE4F0E0B2
:10148000808180618C93ADC0AFE4B0E0EFE4F0E028
:1014900080818E7F8C93AFE4B0E0EFE4F0E0808158
:1014A00082608C93AEE4B0E0EEE4F0E08081877F70
:1014B0008C93AEE4B0E0EEE4F0E0808180618C9348
:1014C00090C0AFE4B0E0EFE4F0E080818E7F8C93D9
:1014D000AFE4B0E0EFE4F0E0808182608C93AEE4B2
:1014E000B0E0EEE4F0E08081877F8C93AEE4B0E082
:1014F000EEE4F0E0808180618C9373C0AFE4B0E0F3
:10150000EFE4F0E0808181608C93AFE4B0E0EFE441
:10151000F0E0808182608C93AEE4B0E0EEE4F0E035
:101520008081877F8C93AEE4B0E0EEE4F0E08081D0
:1015300080618C9356C0AFE4B0E0EFE4F0E08081CE
:101540008E7F8C93AFE4B0E0EFE4F0E080818D7F9C
:101550008C93AEE4B0E0EEE4F0E0808188608C93A0
:10156000AEE4B0E0EEE4F0E0808180618C9339C0BD
:10157000AFE4B0E0EFE4F0E0808181608C93AFE411
:10158000B0E0EFE4F0E080818D7F8C93AEE4B0E0DA
:10159000EEE4F0E0808188608C93AEE4B0E0EEE4AD
:1015A000F0E0808180618C931CC0AFE4B0E0EFE498
:1015B000F0E080818E7F8C93AFE4B0E0EFE4F0E068
:1015C000808182608C93AEE4B0E0EEE4F0E0808154
:1015D00088608C93AEE4B0E0EEE4F0E0808180615E
:1015E0008C930F900F900F90CF91DF910895DF9320
:1015F000CF9300D00F92CDB7DEB789838981282F92
:1016000030E03B832A838A819B818130910521F1DF
:101610002A813B81223031052CF48A819B810097FD
:1016200061F046C02A813B812230310521F18A8157
:101630009B818330910571F13BC0AFE4B0E0EFE4F2
:10164000F0E080818F7B8C93AFE4B0E0EFE4F0E0DA
:1016500080818F778C932CC0AFE4B0E0EFE4F0E0B2
:10166000808180648C93AFE4B0E0EFE4F0E08081AF
:101670008F778C931DC0AFE4B0E0EFE4F0E08081A1
:101680008F7B8C93AFE4B0E0EFE4F0E08081806882
:101690008C930EC0AFE4B0E0EFE4F0E080818064B2
:1016A0008C93AFE4B0E0EFE4F0E0808180688C934D
:1016B0000F900F900F90CF91DF910895DF93CF930C
:1016C00000D00F92CDB7DEB789838981282F30E013
:1016D0003B832A838A819B818130910521F12A8174
:1016E0003B81223031052CF48A819B81009761F087
:1016F00046C02A813B812230310521F18A819B81BC
:101700008330910571F13BC0AFE4B0E0EFE4F0E06D
:1017100080818F7E8C93AFE4B0E0EFE4F0E08081D5
:101720008F7D8C932CC0AFE4B0E0EFE4F0E08081DB
:1017300080618C93AFE4B0E0EFE4F0E080818F7DD6
:101740008C931DC0AFE4B0E0EFE4F0E080818F7EC9
:101750008C93AFE4B0E0EFE4F0E0808180628C93A2
:101760000EC0AFE4B0E0EFE4F0E0808180618C93E4
:10177000AFE4B0E0EFE4F0E0808180628C930F9002
:101780000F900F90CF91DF910895DF93CF9300D00A
:10179000CDB7DEB79A838983ECE4F0E089819A8142
:1017A000918380830F900F90CF91DF910895DF9305
:1017B000CF9300D0CDB7DEB79A838983EAE4F0E017
:1017C00089819A81918380830F900F90CF91DF91CF
:1017D0000895DF93CF9300D0CDB7DEB79A83898386
:1017E000E8E4F0E089819A81918380830F900F90E3
:1017F000CF91DF910895DF93CF9300D0CDB7DEB7BF
:101800009A838983E6E4F0E089819A8191838083D9
:101810000F900F90CF91DF910895DF93CF93CDB7C5
:10182000DEB7A9E5B0E0E9E5F0E0808184608C9363
:10183000CF91DF910895DF93CF93CDB7DEB7A9E5C0
:10184000B0E0E9E5F0E080818B7F8C93CF91DF9170
:101850000895DF93CF93CDB7DEB7A9E5B0E0E9E512
:10186000F0E0808180618C93CF91DF910895DF93C8
:10187000CF93CDB7DEB7A9E5B0E0E9E5F0E0808130
:101880008F7E8C93CF91DF910895DF93CF93CDB767
:10189000DEB7A9E5B0E0E9E5F0E0808188608C93EF
:1018A000CF91DF910895DF93CF93CDB7DEB7A9E550
:1018B000B0E0E9E5F0E08081877F8C93CF91DF9104
:1018C0000895DF93CF9300D00F92CDB7DEB7898311
:1018D0008981282F30E03B832A838A819B81833052
:1018E000910509F449C02A813B81243031055CF41B
:1018F0008A819B818130910599F02A813B81223038
:10190000310521F17AC08A819B818430910509F4E7
:1019100049C02A813B812530310509F459C06DC089
:10192000AEE4B0E0EEE4F0E0808181608C93AEE460
:10193000B0E0EEE4F0E080818D7F8C93AEE4B0E027
:10194000EEE4F0E080818B7F8C9357C0AEE4B0E092
:10195000EEE4F0E080818E7F8C93AEE4B0E0EEE4C4
:10196000F0E0808182608C93AEE4B0E0EEE4F0E0E1
:1019700080818B7F8C9341C0AEE4B0E0EEE4F0E078
:10198000808181608C93AEE4B0E0EEE4F0E0808191
:1019900082608C93AEE4B0E0EEE4F0E080818B7F77
:1019A0008C932BC0AEE4B0E0EEE4F0E080818E7F5B
:1019B0008C93AEE4B0E0EEE4F0E080818D7F8C9318
:1019C000AEE4B0E0EEE4F0E0808184608C9315C07A
:1019D000AEE4B0E0EEE4F0E0808181608C93AEE4B0
:1019E000B0E0EEE4F0E080818D7F8C93AEE4B0E077
:1019F000EEE4F0E0808184608C930F900F900F9064
:101A0000CF91DF910895DF93CF93CDB7DEB780E01C
:101A10000E945C0D80E00E94C30D80E00E94400D9A
:101A200080E00E944E0D0E94380E0E94540ECF910D
:101A3000DF910895DF93CF93CDB7DEB784E00E94A6
:101A4000620ECF91DF910895DF93CF93CDB7DEB7CC
:101A5000A5E4B0E0E5E4F0E080818E7F8C93A5E41E
:101A6000B0E0E5E4F0E080818D7F8C93A5E4B0E008
:101A7000E5E4F0E080818B7F8C93CF91DF91089536
:101A8000DF93CF930F92CDB7DEB78983E4E4F0E024
:101A9000898180830F90CF91DF910895DF93CF9359
:101AA0000F92CDB7DEB78983E3E4F0E089818083CC
:101AB0000F90CF91DF910895DF93CF9300D00F92D5
:101AC000CDB7DEB789838981282F30E03B832A8315
:101AD0008A819B818130910521F12A813B812230CD
:101AE00031052CF48A819B81009761F046C02A81E0
:101AF0003B812230310521F18A819B818330910520
:101B000071F13BC0A5E4B0E0E5E4F0E080818F7BBB
:101B10008C93A5E4B0E0E5E4F0E08081877F8C93CE
:101B20002CC0A5E4B0E0E5E4F0E0808180648C9313
:101B3000A5E4B0E0E5E4F0E08081877F8C931DC0F0
:101B4000A5E4B0E0E5E4F0E080818F7B8C93A5E430
:101B5000B0E0E5E4F0E0808188608C930EC0A5E4FD
:101B6000B0E0E5E4F0E0808180648C93A5E4B0E02F
:101B7000E5E4F0E0808188608C930F900F900F90E7
:101B8000CF91DF910895DF93CF9300D00F92CDB71F
:101B9000DEB789838981282F30E03B832A838A81BD
:101BA0009B818130910521F12A813B8122303105D1
:101BB0002CF48A819B81009761F046C02A813B8189
:101BC0002230310521F18A819B818330910571F1A9
:101BD0003BC0A5E4B0E0E5E4F0E080818F7E8C932B
:101BE000A5E4B0E0E5E4F0E080818F7D8C932CC02B
:101BF000A5E4B0E0E5E4F0E0808180618C93A5E4A9
:101C0000B0E0E5E4F0E080818F7D8C931DC0A5E419
:101C1000B0E0E5E4F0E080818F7E8C93A5E4B0E055
:101C2000E5E4F0E0808180628C930EC0A5E4B0E032
:101C3000E5E4F0E0808180618C93A5E4B0E0E5E428
:101C4000F0E0808180628C930F900F900F90CF9185
:101C5000DF910895DF93CF93CDB7DEB7A9E5B0E06C
:101C6000E9E5F0E0808180648C93CF91DF91089565
:101C7000DF93CF93CDB7DEB7A9E5B0E0E9E5F0E0BB
:101C800080818F7B8C93CF91DF910895DF93CF93E9
:101C9000CDB7DEB7A9E5B0E0E9E5F0E08081806886
:101CA0008C93CF91DF910895DF93CF93CDB7DEB7BB
:101CB000A9E5B0E0E9E5F0E080818F778C93CF91E2
:101CC000DF910895DF93CF9300D00F92CDB7DEB7A9
:101CD00089838981282F30E03B832A838A819B81F5
:101CE0008430910509F46BC02A813B812530310590
:101CF0008CF48A819B8182309105A9F12A813B81F4
:101D0000233031050CF045C08A819B8181309105DB
:101D1000A1F0ACC02A813B812630310509F47BC09B
:101D20008A819B81863091050CF45FC02A813B81BA
:101D30002730310509F485C099C0A5E4B0E0E5E499
:101D4000F0E0808181608C93A5E4B0E0E5E4F0E010
:101D500080818D7F8C93A5E4B0E0E5E4F0E08081A4
:101D60008B7F8C9383C0A5E4B0E0E5E4F0E0808154
:101D70008E7F8C93A5E4B0E0E5E4F0E080818260A2
:101D80008C93A5E4B0E0E5E4F0E080818B7F8C9358
:101D90006DC0A5E4B0E0E5E4F0E0808181608C9363
:101DA000A5E4B0E0E5E4F0E0808182608C93A5E4F6
:101DB000B0E0E5E4F0E080818B7F8C9357C0A5E430
:101DC000B0E0E5E4F0E080818E7F8C93A5E4B0E0A4
:101DD000E5E4F0E080818D7F8C93A5E4B0E0E5E45C
:101DE000F0E0808184608C9341C0A5E4B0E0E5E43C
:101DF000F0E0808181608C93A5E4B0E0E5E4F0E060
:101E000080818D7F8C93A5E4B0E0E5E4F0E08081F3
:101E100084608C932BC0A5E4B0E0E5E4F0E0808121
:101E20008E7F8C93A5E4B0E0E5E4F0E080818260F1
:101E30008C93A5E4B0E0E5E4F0E0808184608C93CD
:101E400015C0A5E4B0E0E5E4F0E0808181608C930A
:101E5000A5E4B0E0E5E4F0E0808182608C93A5E445
:101E6000B0E0E5E4F0E0808184608C930F900F9007
:101E70000F90CF91DF910895DF93CF93CDB7DEB769
:101E8000AFE5B0E0EFE5F0E0808180688C93CF9122
:101E9000DF910895DF93CF93CDB7DEB7AFE5B0E024
:101EA000EFE5F0E080818F778C93CF91DF910895FB
:101EB000DF93CF9300D00F92CDB7DEB789838981AE
:101EC000282F30E03B832A838A819B8181309105D2
:101ED000A1F02A813B8122303105D1F08A819B819A
:101EE000009701F583E062E040E00E944B1183E03F
:101EF00062E041E00E943D1215C083E063E040E0F3
:101F00000E944B1183E063E041E00E943D120AC051
:101F100081E062E040E00E944B1181E062E041E03C
:101F20000E943D120F900F900F90CF91DF91089576
:101F3000DF93CF93CDB7DEB72A970FB6F894DEBF05
:101F40000FBECDBF89836A838981282F30E03A870D
:101F5000298789859A858130910509F466C029858C
:101F60003A852230310509F4BBC089859A850097EE
:101F700009F0D5C08A81282F30E038872F838F81E0
:101F800098858130910521F12F81388522303105E6
:101F90002CF48F819885009761F0C1C02F8138851E
:101FA0002230310521F18F8198858330910571F1BF
:101FB000B6C0A5E5B0E0E5E5F0E080818E7F8C93CA
:101FC000A5E5B0E0E5E5F0E080818D7F8C93A7C0CA
:101FD000A5E5B0E0E5E5F0E0808181608C93A5E5C2
:101FE000B0E0E5E5F0E080818D7F8C9398C0A5E5B9
:101FF000B0E0E5E5F0E080818E7F8C93A5E5B0E070
:10200000E5E5F0E0808182608C9389C0A5E5B0E0D1
:10201000E5E5F0E0808181608C93A5E5B0E0E5E541
:10202000F0E0808182608C937AC08A81282F30E032
:102030003E832D838D819E818130910521F12D81FB
:102040003E81223031052CF48D819E81009761F014
:1020500066C02D813E812230310521F18D819E8126
:102060008330910571F15BC0A5E5B0E0E5E5F0E0F6
:1020700080818B7F8C93A5E5B0E0E5E5F0E0808181
:10208000877F8C934CC0A5E5B0E0E5E5F0E080816A
:1020900084608C93A5E5B0E0E5E5F0E08081877F82
:1020A0008C933DC0A5E5B0E0E5E5F0E080818B7F55
:1020B0008C93A5E5B0E0E5E5F0E0808188608C9345
:1020C0002EC0A5E5B0E0E5E5F0E0808184608C936A
:1020D000A5E5B0E0E5E5F0E0808188608C931FC065
:1020E0008A81282F30E03C832B838B819C81823036
:1020F000910531F02B813C812330310549F00FC02F
:10210000A4E5B0E0E4E5F0E080818F7B8C9307C02C
:10211000A4E5B0E0E4E5F0E0808180648C932A9649
:102120000FB6F894DEBF0FBECDBFCF91DF910895FB
:10213000DF93CF9300D00F92CDB7DEB7898389812B
:10214000282F30E03B832A838A819B81813091054F
:1021500089F02A813B8122303105A1F08A819B815F
:102160000097B9F4ABE5B0E0EBE5F0E08081806486
:102170008C930FC0ABE5B0E0EBE5F0E080818068C8
:102180008C9307C0ABE5B0E0EBE5F0E080818062C6
:102190008C930F900F900F90CF91DF910895DF9364
:1021A000CF9300D00F92CDB7DEB789838981282FD6
:1021B00030E03B832A838A819B818130910589F0BD
:1021C0002A813B8122303105A1F08A819B810097D1
:1021D000B9F4ABE5B0E0EBE5F0E080818F7B8C9368
:1021E0000FC0ABE5B0E0EBE5F0E080818F778C933A
:1021F00007C0ABE5B0E0EBE5F0E080818F7D8C932C
:102200000F900F900F90CF91DF910895DF93CF93B0
:1022100000D0CDB7DEB79A83898389819A81909364
:102220008500809384000F900F90CF91DF910895E7
:102230001F920F920FB60F9211242F933F934F933B
:102240005F936F937F938F939F93AF93BF93EF931E
:10225000FF93DF93CF93CDB7DEB780918400909149
:102260008500009729F0E0918400F09185000995A0
:10227000CF91DF91FF91EF91BF91AF919F918F919E
:102280007F916F915F914F913F912F910F900FBE72
:102290000F901F901895DF93CF9300D000D00F922E
:1022A000CDB7DEB789836A834B838981282F30E0DD
:1022B0003D832C838C819D818130910509F447C039
:1022C0002C813D81223031052CF48C819D81009739
:1022D00071F0CBC02C813D812230310509F467C0FB
:1022E0008C819D818330910509F491C0BEC08B81A2
:1022F0008130A1F4AAE3B0E0EAE3F0E08081482F66
:102300008A81282F30E081E090E0022E02C0880F01
:10231000991F0A94E2F7842B8C93A7C08B818823A2
:1023200009F0A3C0AAE3B0E0EAE3F0E08081482F1F
:102330008A81282F30E081E090E0022E02C0880FD1
:10234000991F0A94E2F7809584238C938EC08B8129
:102350008130A1F4A7E3B0E0E7E3F0E08081482F0B
:102360008A81282F30E081E090E0022E02C0880FA1
:10237000991F0A94E2F7842B8C9377C08B81882372
:1023800009F073C0A7E3B0E0E7E3F0E08081482FF5
:102390008A81282F30E081E090E0022E02C0880F71
:1023A000991F0A94E2F7809584238C935EC08B81F9
:1023B0008130A1F4A4E3B0E0E4E3F0E08081482FB1
:1023C0008A81282F30E081E090E0022E02C0880F41
:1023D000991F0A94E2F7842B8C9347C08B81882342
:1023E00009F043C0A4E3B0E0E4E3F0E08081482FCB
:1023F0008A81282F30E081E090E0022E02C0880F11
:10240000991F0A94E2F7809584238C932EC08B81C8
:102410008130A1F4A1E3B0E0E1E3F0E08081482F56
:102420008A81282F30E081E090E0022E02C0880FE0
:10243000991F0A94E2F7842B8C9317C08B81882311
:10244000A1F4A1E3B0E0E1E3F0E08081482F8A81CC
:10245000282F30E081E090E0022E02C0880F991F03
:102460000A94E2F7809584238C930F900F900F903D
:102470000F900F90CF91DF910895DF93CF93CDB759
:10248000DEB72D970FB6F894DEBF0FBECDBF8983A0
:102490006A834B838981282F30E03D872C878C8588
:1024A0009D858130910509F44FC02C853D852230F2
:1024B00031052CF48C859D85009771F0ECC02C853E
:1024C0003D852230310509F477C08C859D858330A8
:1024D000910509F4A9C0DFC08B81282F30E03B872C
:1024E0002A878A859B85009731F02A853B85213094
:1024F0003105B1F0D0C0ABE3B0E0EBE3F0E08081B8
:10250000482F8A81282F30E081E090E0022E02C01F
:10251000880F991F0A94E2F7809584238C93BBC09F
:10252000ABE3B0E0EBE3F0E08081482F8A81282F15
:1025300030E081E090E0022E02C0880F991F0A94DB
:10254000E2F7842B8C93A7C08B81282F30E039874A
:10255000288788859985009731F02885398521302D
:102560003105B1F098C0A8E3B0E0E8E3F0E0808185
:10257000482F8A81282F30E081E090E0022E02C0AF
:10258000880F991F0A94E2F7809584238C9383C067
:10259000A8E3B0E0E8E3F0E08081482F8A81282FAB
:1025A00030E081E090E0022E02C0880F991F0A946B
:1025B000E2F7842B8C936FC08B81282F30E03F8310
:1025C0002E838E819F81009731F02E813F812130B3
:1025D0003105B1F060C0A5E3B0E0E5E3F0E0808153
:1025E000482F8A81282F30E081E090E0022E02C03F
:1025F000880F991F0A94E2F7809584238C934BC02F
:10260000A5E3B0E0E5E3F0E08081482F8A81282F40
:1026100030E081E090E0022E02C0880F991F0A94FA
:10262000E2F7842B8C9337C08B81282F30E03D83D9
:102630002C838C819D81009731F02C813D8121304C
:102640003105B1F028C0A2E3B0E0E2E3F0E0808120
:10265000482F8A81282F30E081E090E0022E02C0CE
:10266000880F991F0A94E2F7809584238C9313C0F6
:10267000A2E3B0E0E2E3F0E08081482F8A81282FD6
:1026800030E081E090E0022E02C0880F991F0A948A
:10269000E2F7842B8C932D960FB6F894DEBF0FBE15
:1026A000CDBFCF91DF910895DF93CF9300D000D0BD
:1026B0000F92CDB7DEB78A836B8319828A81282F68
:1026C00030E03D832C834C815D814130510541F1E7
:1026D0008C819D818230910534F42C813D812115BE
:1026E000310561F052C04C815D814230510551F19C
:1026F0008C819D8183309105B9F147C0E9E3F0E019
:102700008081282F30E08B81882F90E0A90102C0C2
:10271000559547958A95E2F7CA018170898335C03E
:10272000E6E3F0E08081282F30E08B81882F90E075
:10273000A90102C0559547958A95E2F7CA018170B3
:10274000898323C0E3E3F0E08081282F30E08B8190
:10275000882F90E0A90102C0559547958A95E2F728
:10276000CA018170898311C0E0E3F0E08081282FE5
:1027700030E08B81882F90E0A90102C055954795E4
:102780008A95E2F7CA018170898389810F900F9041
:102790000F900F900F90CF91DF910895DF93CF931B
:1027A00000D000D0CDB7DEB789836A838981282F16
:1027B00030E03C832B838B819C8181309105D1F06B
:1027C0002B813C81223031052CF48B819C81009738
:1027D00061F01EC02B813C812230310581F08B815C
:1027E0009C818330910581F013C0EAE3F0E08A8197
:1027F00080830EC0E7E3F0E08A81808309C0E4E3D0
:10280000F0E08A81808304C0E1E3F0E08A81808384
:102810000F900F900F900F90CF91DF910895DF935D
:10282000CF9300D000D0CDB7DEB789836A8389818A
:10283000282F30E03C832B838B819C818130910554
:10284000D1F02B813C81223031052CF48B819C818D
:10285000009761F01EC02B813C812230310581F050
:102860008B819C818330910581F013C0EBE3F0E014
:102870008A8180830EC0E8E3F0E08A81808309C00A
:10288000E5E3F0E08A81808304C0E2E3F0E08A813E
:1028900080830F900F900F900F90CF91DF9108954C
:1028A000DF93CF9300D0CDB7DEB79A838983E981D8
:1028B000FA818081E981FA819181692F41E00E944A
:1028C0004B110F900F90CF91DF910895DF93CF932D
:1028D00000D0CDB7DEB79A838983E981FA81808100
:1028E000E981FA819181692F41E00E943D120F90A8
:1028F0000F90CF91DF910895DF93CF9300D0CDB7A4
:10290000DEB79A838983E981FA818081E981FA813E
:102910009181692F40E00E943D120F900F90CF915E
:10292000DF9108950F931F93DF93CF93CDB7DEB759
:10293000C455D0400FB6F894DEBF0FBECDBF82E0C5
:1029400062E040E00E943D1283E06FEF0E94CE13F0
:1029500082E060E041E00E944B1182E061E041E0F2
:102960000E944B1182E062E041E00E944B11FE01A7
:10297000EF5AFF4F80E090E0A0EFB1E480839183B5
:10298000A283B3838E01035B1F4FFE01EF5AFF4FFB
:10299000608171818281938120E030E04AEF54E4CC
:1029A0000E941F02DC01CB01F80180839183A28386
:1029B000B383FE01E35BFF4F60817181828193816C
:1029C00020E030E040E85FE30E942504882344F4DF
:1029D000FE01E55BFF4F81E090E09183808364C05E
:1029E000FE01E35BFF4F608171818281938120E072
:1029F0003FEF4FE757E40E94C50318160CF043C0A1
:102A0000FE01EF5AFF4F608171818281938120E046
:102A100030E040E251E40E941F02DC01CB018E0154
:102A2000055B1F4FBC01CD010E944900DC01CB01B9
:102A3000F801918380831FC0FE01E75BFF4F88ECA4
:102A400090E091838083FE01E75BFF4F808191815D
:102A50000197F1F7FE01E75BFF4F91838083DE0171
:102A6000A55BBF4FFE01E55BFF4F80819181019720
:102A700011969C938E93FE01E55BFF4F80819181BF
:102A80000097D1F627C08E01055B1F4FFE01E35B67
:102A9000FF4F60817181828193810E944900DC0136
:102AA000CB01F80191838083DE01A95BBF4FFE015A
:102AB000E55BFF4F808191818D939C93FE01E95BE3
:102AC000FF4F808191810197F1F7FE01E95BFF4F94
:102AD0009183808382E00E94DC17FE01ED5BFF4F53
:102AE00080E090E0A0EAB0E480839183A283B38386
:102AF0008E01015C1F4FFE01ED5BFF4F6081718114
:102B00008281938120E030E04AEF54E40E941F026A
:102B1000DC01CB01F80180839183A283B383FE01A2
:102B2000FF96608171818281938120E030E040E8EE
:102B30005FE30E94250488232CF481E090E09EAF9F
:102B40008DAF46C0FE01FF966081718182819381C5
:102B500020E03FEF4FE757E40E94C503181664F5E5
:102B6000FE01ED5BFF4F608171818281938120E0E6
:102B700030E040E251E40E941F02DC01CB01BC01C5
:102B8000CD010E944900DC01CB019EAF8DAF0FC08B
:102B900088EC90E09CAF8BAF8BAD9CAD0197F1F7CB
:102BA0009CAF8BAF8DAD9EAD01979EAF8DAF8DADC0
:102BB0009EAD009769F716C0FE01FF966081718196
:102BC000828193810E944900DC01CB019EAF8DAFD1
:102BD0008DAD9EAD9AAF89AF89AD9AAD0197F1F7F2
:102BE0009AAF89AF88E30E94DC1780E090E0A0EA0A
:102BF000B0E48DAB9EABAFABB8AF6DA97EA98FA98A
:102C000098AD20E030E04AEF54E40E941F02DC015E
:102C1000CB0189AB9AABABABBCAB69A97AA98BA949
:102C20009CA920E030E040E85FE30E94250488236F
:102C30002CF481E090E098AB8FA73FC069A97AA9F6
:102C40008BA99CA920E03FEF4FE757E40E94C50302
:102C500018164CF56DA97EA98FA998AD20E030E03B
:102C600040E251E40E941F02DC01CB01BC01CD0116
:102C70000E944900DC01CB0198AB8FA70FC088EC04
:102C800090E09EA78DA78DA59EA50197F1F79EA721
:102C90008DA78FA598A9019798AB8FA78FA598A905
:102CA000009769F714C069A97AA98BA99CA90E9409
:102CB0004900DC01CB0198AB8FA78FA598A99CA7F1
:102CC0008BA78BA59CA50197F1F79CA78BA78CE000
:102CD0000E94DC1780E090E0A0EAB0E48FA398A700
:102CE000A9A7BAA76FA178A589A59AA520E030E089
:102CF0004AEF54E40E941F02DC01CB018BA39CA38A
:102D0000ADA3BEA36BA17CA18DA19EA120E030E06C
:102D100040E85FE30E94250488232CF481E090E0E2
:102D20009AA389A33FC06BA17CA18DA19EA120E0A5
:102D30003FEF4FE757E40E94C50318164CF56FA10B
:102D400078A589A59AA520E030E040E251E40E94F0
:102D50001F02DC01CB01BC01CD010E944900DC0156
:102D6000CB019AA389A30FC088EC90E098A38F8F22
:102D70008F8D98A10197F1F798A38F8F89A19AA1C0
:102D800001979AA389A389A19AA1009769F714C012
:102D90006BA17CA18DA19EA10E944900DC01CB0109
:102DA0009AA389A389A19AA19E8F8D8F8D8D9E8DC7
:102DB0000197F1F79E8F8D8F81E00E94DC1780E0F4
:102DC00090E0A0EAB0E4898F9A8FAB8FBC8F698DB9
:102DD0007A8D8B8D9C8D20E030E04AEF54E40E9488
:102DE0001F02DC01CB018D8B9E8BAF8BB88F6D8961
:102DF0007E898F89988D20E030E040E85FE30E9473
:102E0000250488232CF481E090E09C8B8B8B3FC0C1
:102E10006D897E898F89988D20E03FEF4FE757E4D9
:102E20000E94C50318164CF5698D7A8D8B8D9C8D8B
:102E300020E030E040E251E40E941F02DC01CB01BF
:102E4000BC01CD010E944900DC01CB019C8B8B8B26
:102E50000FC088EC90E09A8B898B89899A890197B9
:102E6000F1F79A8B898B8B899C8901979C8B8B8B33
:102E70008B899C89009769F714C06D897E898F8939
:102E8000988D0E944900DC01CB019C8B8B8B8B8938
:102E90009C89988B8F878F8598890197F1F7988BFC
:102EA0008F8786E00E94DC1780E090E0A0EAB0E423
:102EB0008B879C87AD87BE876B857C858D859E853E
:102EC00020E030E04AEF54E40E941F02DC01CB0115
:102ED0008F839887A987BA876F81788589859A8536
:102EE00020E030E040E85FE30E94250488232CF4D2
:102EF00081E090E09E838D833FC06F8178858985D6
:102F00009A8520E03FEF4FE757E40E94C50318166B
:102F10004CF56B857C858D859E8520E030E040E218
:102F200051E40E941F02DC01CB01BC01CD010E94D3
:102F30004900DC01CB019E838D830FC088EC90E0BB
:102F40009C838B838B819C810197F1F79C838B837E
:102F50008D819E8101979E838D838D819E810097B7
:102F600069F714C06F81788589859A850E94490028
:102F7000DC01CB019E838D838D819E819A83898321
:102F800089819A810197F1F79A838983CC5ADF4F1F
:102F90000FB6F894DEBF0FBECDBFCF91DF911F916A
:102FA0000F910895DF93CF93CDB7DEB781E00E94F4
:102FB000DC17CF91DF910895DF93CF93CDB7DEB7C4
:102FC0002F970FB6F894DEBF0FBECDBF8F8782E07C
:102FD00060E040E00E943D1282E061E040E00E943B
:102FE0003D1282E062E040E00E943D1283E06F8586
:102FF0000E940F1482E062E041E00E943D1280E0F6
:1030000090E0A0EAB0E48B879C87AD87BE876B8594
:103010007C858D859E8520E030E04AEF54E40E9457
:103020001F02DC01CB018F839887A987BA876F8144
:10303000788589859A8520E030E040E85FE30E944A
:10304000250488232CF481E090E09E838D833FC08B
:103050006F81788589859A8520E03FEF4FE757E4B7
:103060000E94C50318164CF56B857C858D859E8561
:1030700020E030E040E251E40E941F02DC01CB017D
:10308000BC01CD010E944900DC01CB019E838D83F0
:103090000FC088EC90E09C838B838B819C8101978F
:1030A000F1F79C838B838D819E8101979E838D8315
:1030B0008D819E81009769F714C06F81788589851D
:1030C0009A850E944900DC01CB019E838D838D810E
:1030D0009E819A83898389819A810197F1F79A83E6
:1030E000898382E062E040E00E943D122F960FB695
:1030F000F894DEBF0FBECDBFCF91DF910895DF936F
:10310000CF93CDB7DEB72F970FB6F894DEBF0FBEC3
:10311000CDBF8F8782E060E041E00E943D1282E0F7
:1031200061E040E00E943D1282E062E040E00E94E7
:103130003D1283E06F850E940F1482E062E041E05F
:103140000E943D1280E090E0A0EAB0E48B879C876B
:10315000AD87BE876B857C858D859E8520E030E0C0
:103160004AEF54E40E941F02DC01CB018F83988751
:10317000A987BA876F81788589859A8520E030E0B4
:1031800040E85FE30E94250488232CF481E090E06E
:103190009E838D833FC06F81788589859A8520E0E5
:1031A0003FEF4FE757E40E94C50318164CF56B85B7
:1031B0007C858D859E8520E030E040E251E40E94D0
:1031C0001F02DC01CB01BC01CD010E944900DC01E2
:1031D000CB019E838D830FC088EC90E09C838B8312
:1031E0008B819C810197F1F79C838B838D819E81DC
:1031F00001979E838D838D819E81009769F714C00E
:103200006F81788589859A850E944900DC01CB0110
:103210009E838D838D819E819A83898389819A8102
:103220000197F1F79A83898382E062E040E00E948F
:103230003D122F960FB6F894DEBF0FBECDBFCF91D3
:10324000DF910895DF93CF9300D00F92CDB7DEB713
:103250009B838A8319820EC08981282F30E08A815E
:103260009B81FC01E20FF31F80810E947F188981FE
:103270008F5F89838981282F30E08A819B81FC01BF
:10328000E20FF31F8081882339F70F900F900F9082
:10329000CF91DF910895DF93CF9300D000D0CDB7C9
:1032A000DEB789836A838A818131C8F48981282FB6
:1032B00030E03C832B838B819C818130910531F000
:1032C0002B813C812230310531F009C08A81805840
:1032D0000E94DC1704C08A8180540E94DC170F9082
:1032E0000F900F900F90CF91DF910895DF93CF93C0
:1032F00000D0CDB7DEB789836A830F900F90CF914E
:10330000DF910895DF93CF93CDB7DEB780E060E023
:1033100040E00E944B1180E061E040E00E944B11D0
:1033200080E062E040E00E944B1180E063E040E01A
:103330000E944B1180E060E041E00E943D1280E07D
:1033400061E041E00E943D1280E062E041E00E94C5
:103350003D1280E063E041E00E943D1280E064E0C5
:1033600041E00E944B1180E065E041E00E944B117A
:1033700080E066E041E00E944B1180E067E041E0C0
:103380000E944B1180E064E041E00E943D1280E029
:1033900065E041E00E943D1280E066E041E00E946D
:1033A0003D1280E067E041E00E943D12CF91DF9145
:1033B0000895DF93CF9300D000D00F92CDB7DEB742
:1033C0008FEF89831B8257C08B81882F90E0FC018F
:1033D000E459FF4F908180E0692F40E00E943D1248
:1033E0001A8237C08A81882F90E0FC01E859FF4F8C
:1033F000908180E0692F0E9454138C838C818823F4
:1034000029F58A81482F50E08B81282F30E0CA01AE
:10341000880F991F880F991F820F931FFC01E05995
:10342000FF4F808189830CC08A81882F90E0FC0146
:10343000E859FF4F908180E0692F0E9454138C83DC
:103440008C81882389F389818D831BC08A818F5F5A
:103450008A838A81843030F28B81882F90E0FC014E
:10346000E459FF4F908180E0692F41E00E943D12B6
:103470008B818F5F8B838B81843008F4A5CF89810A
:103480008D838D810F900F900F900F900F90CF91A3
:10349000DF910895DF93CF9300D000D0CDB7DEB792
:1034A0009A838983809186009091870001969093FA
:1034B00087008093860080918600909187008C33EE
:1034C000910569F410928700109286008091800027
:1034D000909181000196909381008093800080916B
:1034E0008000909181008C33910569F410928100E5
:1034F00010928000809182009091830001969093B9
:1035000083008093820080918200909183008C30B0
:10351000910521F410928300109282000E947A1B80
:103520000F900F900F900F90CF91DF910895DF9340
:10353000CF93CDB7DEB70E94AC1A0E94C61A0E9484
:1035400088080E943C0F81E060E00E9454138823A9
:10355000D1F30E947A1BF7CFDF93CF93CDB7DEB7BD
:1035600080E06FEF0E94CE1382E066E041E00E94AF
:103570004B1182E067E041E00E944B1181E060E086
:1035800040E00E944B11CF91DF910895DF93CF93DC
:10359000CDB7DEB780E060E041E00E943D12CF9100
:1035A000DF910895DF93CF93CDB7DEB780E061E080
:1035B00041E00E943D12CF91DF910895DF93CF93B8
:1035C000CDB7DEB780E061E041E00E943D1280E0CF
:1035D00062E041E00E943D12CF91DF910895DF93B8
:1035E000CF93CDB7DEB780E061E041E00E943D12AD
:1035F00080E062E041E00E943D1280E063E041E053
:103600000E943D12CF91DF910895DF93CF93CDB704
:10361000DEB780E064E041E00E943D1280E065E0BA
:1036200041E00E943D1280E066E041E00E943D12D0
:1036300080E067E041E00E943D1282E066E041E008
:103640000E943D1282E067E041E00E943D12CF916E
:10365000DF910895DF93CF93CDB7DEB780E065E0CB
:1036600041E00E943D1280E066E041E00E943D1290
:1036700080E067E041E00E943D1282E066E041E0C8
:103680000E943D1282E067E041E00E943D12CF912E
:10369000DF910895DF93CF93CDB7DEB780E066E08A
:1036A00041E00E943D1280E067E041E00E943D124F
:1036B00082E066E041E00E943D1282E067E041E086
:1036C0000E943D12CF91DF910895DF93CF93CDB744
:1036D000DEB780E061E00E940F1482E066E040E027
:1036E0000E943D1282E067E040E00E943D12CF91CF
:1036F000DF910895DF93CF93CDB7DEB7E4970FB690
:10370000F894DEBF0FBECDBF1CAA1BAA1AAA19AA25
:10371000C8C10E94D21A89A99AA925E030E0B9014E
:103720000E94601D009711F40E94DE1A89A99AA9CF
:1037300023E030E0B9010E94601D009711F40E945F
:10374000EF1A209186003091870089A99AA98217E3
:10375000930711F40E94051B209180003091810095
:1037600089A99AA98217930711F40E942A1B89A993
:103770009AA925E030E0B9010E94601DCB019C01AF
:1037800080918200909183002817390711F40E94DC
:103790004A1B8BA99CA901969CAB8BAB89A99AA9C2
:1037A00001969AAB89AB80E090E0ACE0B4E48DA7E1
:1037B0009EA7AFA7B8AB6DA57EA58FA598A92BEA4C
:1037C0003AEA4AE250E40E941F02DC01CB0189A7D9
:1037D0009AA7ABA7BCA769A57AA58BA59CA520E055
:1037E00030E040E85FE30E94250488231CF481E078
:1037F00088A791C069A57AA58BA59CA520E030E09B
:103800004FE753E40E94C50318160CF07BC06DA56A
:103810007EA58FA598A920E030E04AE754E40E94F5
:103820001903DC01CB018CA39DA3AEA3BFA36CA1A4
:103830007DA18EA19FA120E030E04AEF54E40E94D8
:103840001F02DC01CB0188A399A3AAA3BBA368A193
:1038500079A18AA19BA120E030E040E85FE30E94CB
:10386000250488232CF481E090E09F8F8E8F3FC049
:1038700068A179A18AA19BA120E03FEF4FE757E41F
:103880000E94C50318164CF56CA17DA18EA19FA1C5
:1038900020E030E040E251E40E941F02DC01CB0155
:1038A000BC01CD010E944900DC01CB019F8F8E8FAE
:1038B0000FC088EC90E09D8F8C8F8C8D9D8D019733
:1038C000F1F79D8F8C8F8E8D9F8D01979F8F8E8F9F
:1038D0008E8D9F8D009769F724C068A179A18AA178
:1038E0009BA10E944900DC01CB019F8F8E8F8E8DA2
:1038F0009F8D9B8F8A8F8A8D9B8D0197F1F79B8F70
:103900008A8F0FC069A57AA58BA59CA50E94490046
:10391000DC01CB0188A788A5898F898D8A95F1F76D
:10392000898F0E94651B80E090E0A6E1B5E48D8B55
:103930009E8BAF8BB88F6D897E898F89988D2BEA8E
:103940003AEA4AE250E40E941F02DC01CB01898B73
:103950009A8BAB8BBC8B69897A898B899C8920E097
:1039600030E040E85FE30E94250488231CF481E0F6
:10397000888B91C069897A898B899C8920E030E0A5
:103980004FE753E40E94C50318160CF07BC06D8905
:103990007E898F89988D20E030E04AE754E40E94C8
:1039A0001903DC01CB018C879D87AE87BF876C85AF
:1039B0007D858E859F8520E030E04AEF54E40E94AB
:1039C0001F02DC01CB0188879987AA87BB8768859E
:1039D00079858A859B8520E030E040E85FE30E949E
:1039E000250488232CF481E090E09F838E833FC0E0
:1039F000688579858A859B8520E03FEF4FE757E40E
:103A00000E94C50318164CF56C857D858E859F85B3
:103A100020E030E040E251E40E941F02DC01CB01D3
:103A2000BC01CD010E944900DC01CB019F838E8344
:103A30000FC088EC90E09D838C838C819D810197E1
:103A4000F1F79D838C838E819F8101979F838E8365
:103A50008E819F81009769F724C0688579858A8562
:103A60009B850E944900DC01CB019F838E838E8160
:103A70009F819B838A838A819B810197F1F79B8336
:103A80008A830FC069897A898B899C890E94490041
:103A9000DC01CB01888B8889898389818A95F1F73C
:103AA00089838BA99CA98C33910508F432CEE496C6
:103AB0000FB6F894DEBF0FBECDBFCF91DF91089552
:103AC000AA1BBB1B51E107C0AA1FBB1FA617B70744
:103AD00010F0A61BB70B881F991F5A95A9F7809560
:103AE0009095BC01CD0108952F923F924F925F9225
:103AF0006F927F928F929F92AF92BF92CF92DF92FE
:103B0000EF92FF920F931F93CF93DF93CDB7DEB762
:103B1000CA1BDB0B0FB6F894DEBF0FBECDBF0994F6
:103B20002A88398848885F846E847D848C849B844D
:103B3000AA84B984C884DF80EE80FD800C811B815B
:103B4000AA81B981CE0FD11D0FB6F894DEBF0FBE8A
:0A3B5000CDBFED010895F894FFCFFA
:103B5A00000000000000000000010203040506073F
:103B6A003738392F3435362A3132332D63303D2BED
:043B7A00050003003F
:00000001FF
